:100000000C9434000C9451000C9451000C94510049
:100010000C9453000C9451000C948B010C945100DF
:100020000C9451000C9451000C9451000C9451000C
:100030000C9451000C9451000C9451000C945100FC
:100040000C9451000C9451000C949B030C9461048B
:100050000C9451000C941D080C9451000C94510008
:100060000C9451000C94510011241FBECFEFD8E026
:10007000DEBFCDBF11E0A0E0B1E0E8EBF1E102C0EE
:1000800005900D92A833B107D9F711E0A8E3B1E0CC
:1000900001C01D92AF39B107E1F70E949A010C949B
:1000A000DA080C9400001F920F920FB60F921124E1
:1000B0002F933F934F935F938F939F93AF93BF93F0
:1000C00088B13091210140912201942F932B9823E4
:1000D00099F120E0482309F421E090E0382309F069
:1000E00091E02917A9F0209123013091240140913A
:1000F0002501509126012F5F3F4F4F4F5F4F2093B7
:10010000230130932401409325015093260114C00C
:1001100020912701309128014091290150912A0115
:100120002F5F3F4F4F4F5F4F2093270130932801A0
:100130004093290150932A0130912B0140912C01C9
:10014000942F932B982389F120E0482309F421E090
:1001500090E0832309F091E02917A1F080912D010F
:1001600090912E01A0912F01B09130010196A11D17
:10017000B11D80932D0190932E01A0932F01B09378
:10018000300113C08091310190913201A09133016F
:10019000B09134010196A11DB11D8093310190935E
:1001A0003201A0933301B0933401BF91AF919F917D
:1001B0008F915F914F913F912F910F900FBE0F90B4
:1001C0001F901895DF93CF93CDB7DEB72A970FB660
:1001D000F894DEBF0FBECDBFFB0190E0AC01440F31
:1001E000551FE40FF51F22813181485C5E4FFA01F3
:1001F0003183208337FF35C04DE050E0849FF0010C
:10020000859FF00D949FF00D1124DE011696E95F95
:10021000FE4F45E001900D924150E1F7EE81FF81E4
:10022000118210824DE050E0849FF001859FF00D17
:10023000949FF00D1124DE011196E45FFE4F45E01E
:1002400001900D924150E1F7E981FA814427552749
:10025000421B530B440F452F441F550B51954083B0
:100260002EC04DE050E0849FF001859FF00D949FDB
:10027000F00D1124DE011196E45FFE4F45E0019080
:100280000D924150E1F7E981FA8110824DE050E092
:10029000849FF001859FF00D949FF00D1124DE01E5
:1002A0001696E95FFE4F45E001900D924150E1F74F
:1002B000EE81FF81318320832115310589F02DE006
:1002C00030E0829FF001839FF00D929FF00D11248A
:1002D000E95FFE4FA285B3858C919485892B11C06F
:1002E0002DE030E0829FF001839FF00D929FF00D92
:1002F0001124E95FFE4FA285B3859C91848580958A
:1003000089238C932A960FB6F894DEBF0FBECDBF1B
:10031000CF91DF9108951F920F920FB60F92112483
:100320008F9381E080933C018F910F900FBE0F90CF
:100330001F901895DF93CF93CDB7DEB7CE54D04042
:100340000FB6F894DEBF0FBECDBFF894A89584B762
:10035000877F84BF8091600088618093600085E41E
:1003600080936000809164008F6E809364000E948F
:10037000DB050E94DB070E942207809164008F7DCD
:100380008093640015BC81EA84BD16BC17BC18BC00
:1003900010926E0087E085BB81E085BD809164008E
:1003A000877F809364001092810080EA80938000B0
:1003B000109285001092840010928900109288009B
:1003C00010928B0010928A008FEF9FE79093870026
:1003D0008093860010926F0087E286BB81E1809354
:1003E0008100E9E0F1E0A081B1812C919281892F17
:1003F000809582238C938E91892B8C93A581B681D5
:100400002C919781892F809582238C938E91892BB3
:100410008C93A085B1852C919285892F809582231C
:100420008C938E91892B8C933D9621E0E332F207D9
:10043000D1F610926C0027B181E090E0AC01009001
:10044000210102C0440F551F0A94E2F7342F309562
:10045000232327B930936C0027B1AC01009022010F
:1004600002C0440F551F0A94E2F7342F309523231E
:1004700027B930936C0027B1AC0100902B0102C06A
:10048000440F551F0A94E2F7342F3095232327B9E0
:1004900030936C0027B100902C0102C0880F991F87
:1004A0000A94E2F78095282327B980936C00809105
:1004B00068008260809368007894B4E2EB2EF12C9F
:1004C000EC0EFD1EADE58A2E01E010E0F1E74F2EA7
:1004D000512CE3E69E2E7EE1A72EB12CAC0EBD1E64
:1004E0006AE1C62ED12CCC0EDD1E50E9252E312C12
:1004F00049E3642E712C6C0E7D1EC70165E10E94DC
:10050000BA06882309F4AFC02F968FAF2F970E94A9
:100510008503F70190812F968FAD2F97943621F0A8
:10052000953609F07CC024C08530C9F01D830C834A
:100530008D818C830D835B824A829B819A834B825F
:100540002A813B819A8E8B8F3D8F2C8FD501E0E0E5
:10055000F1E086E001900D928150E1F778C081E0F2
:10056000B7010E94E20080E0B7010E94E2008AC069
:100570008130D9F0198B088B8989888B098B2EE7FC
:1005800030E03F872E879F859E872F872E853F856A
:100590009A8E8B8F3D8F2C8FD501E0E0F1E086E0C5
:1005A00001900D928150E1F752C0CE0146960E9413
:1005B0005E0885E1F30111928A95E9F7F2E6F9AF59
:1005C0008E899F899C878D878C859D859BAF8AAFFF
:1005D000888D998D9A878B878A859B8526969FAF74
:1005E0008EAF26978091380190913901988789873D
:1005F0008885998522969FAF8EAF229780913A0188
:1006000090913B019E838F838E819F812C969FAF1B
:100610008EAF2C97C30165E10E94F20533C01D8B9C
:100620000C8B8D898C8B0D8B3B8A2A8A9B899A8BAC
:100630002B8A2A893B899A8E8B8F3D8F2C8FD501EF
:10064000E0E0F1E086E001900D928150E1F7C60113
:100650006AE00E94F20507C0F8948092600025E4E9
:1006600020936000789480913C01882309F445CF61
:1006700031E63983CE01019661E00E94F2051092C5
:100680003C013BCFA8958091600086FFE5CFEBCF82
:1006900080916B0190916A01891711F480E00895AF
:1006A00090E0FC013196E770F070EE5BFE4FDC01EC
:1006B000AE5BBE4F80A190969C919097891B8F71E5
:1006C000089580916B01A82FB0E0AE5BBE4F90966D
:1006D0009C919097E82FEF5FF0E0E770F070EE5B91
:1006E000FE4F20A130916A01831769F0921759F0EB
:1006F000E92FF0E0EE5BFE4F80819F5F9F71909647
:100700009C939097089580E0089580916B018F5F8E
:10071000877080936B01089580E020916B01909128
:100720006A01291381E0089580916A0190916B011B
:10073000891B877008951F920F920FB60F92112494
:100740002F933F934F935F936F937F938F939F93D9
:10075000AF93BF93CF93DF93EF93FF932091C000AC
:100760009091C600A0916A018A2F8F5F87702C71CB
:1007700009F080C09E37B9F591E090934001109246
:100780004101B0E0AE5BBE4F90963C919097482FF0
:1007900050E0FA01EE5BFE4F90A13917E9F0282FE7
:1007A0002F5F277060916B01261739F060913E0131
:1007B00070913F016115710529F04E5B5E4FFA01A2
:1007C00030A30AC092509F7190A3E22FF0E0EE5B3D
:1007D000FE4F90A380936A018FEF9FEF90933F01AC
:1007E00080933E015BC020914001222309F456C052
:1007F0009F3709F43FC09D3721F481E08093410188
:100800004DC020914101222321F01092410120E2AC
:10081000922720913E0130913F012927022E2295F7
:10082000207F2025032E322F22952F700226269519
:1008300032272327220F220F220F202530933F013A
:1008400020933E01E82FF0E0EE5BFE4F30A1232F16
:100850002F5F2F7140916B01C42FD0E0CE5BDE4F34
:1008600048A1421739F0A32FB0E0AE5BBE4F9C9376
:1008700020A314C010924001109241012FEF3FEFCE
:1008800030933F0120933E01E82FF0E0EE5BFE4FF6
:10089000B0E0AE5BBE4F90968C9180A3FF91EF913C
:1008A000DF91CF91BF91AF919F918F917F916F9188
:1008B0005F914F913F912F910F900FBE0F901F901E
:1008C00018951F920F920FB60F9211242F933F93FA
:1008D0008F939F93AF93BF93EF93FF9320919501D5
:1008E000E22FF0E0E459FE4F90A1822F8F5F8770D6
:1008F000A82FB0E0A459BE4F90963C9190979317C3
:1009000071F480939501909194018917C1F410922C
:100910003D018091C1008F7D8093C10013C0809103
:100920009401281741F410923D018091C1008F7D00
:100930008093C10021C080913D01882339F481E07A
:1009400080933D018EE78093C60016C0A92FB0E0CA
:10095000A459BE4F8C91282F2D57233038F49DE792
:100960009093C60090E298279C9306C08093C6009F
:10097000892F8F5F8F7180A3FF91EF91BF91AF910E
:100980009F918F913F912F910F900FBE0F901F90CD
:1009900018952091940130E0C9018095909540917F
:1009A0009501840F911D8770907082309105B0F091
:1009B00081E080939601F9013196E770F070E45977
:1009C000FE4F24593E4FD90190968C91909780A369
:1009D0008FEF9FEF90939801809397010895CF93A5
:1009E000DF9390919601992309F447C0A091940157
:1009F000EA2FEF5FE770F0E0E459FE4F90A1492F36
:100A000050E09A012095309560919501C62FD0E075
:100A1000C459DE4F68A1260F311D2F71307023306D
:100A2000310550F4B0E0A459BE4F90968C91909748
:100A300080A31092960121C02091970130919801D6
:100A40002827022E2295207F2025032E322F229543
:100A50002F700226269532272327220F220F220FDE
:100A60002025309398012093970144595E4FDA0175
:100A70008C93892F8F5F8F7180A3DF91CF91089521
:100A8000CF93DF9320919601222309F45FC0A091B8
:100A90009401EA2FEF5FE770F0E0E459FE4F40A1C8
:100AA000642F70E09B012095309550919501C52FE2
:100AB000D0E0C459DE4F58A1250F311D2F71307081
:100AC0002430310550F4B0E0A459BE4F90968C917B
:100AD000909780A31092960139C064597E4FDB0134
:100AE0009C93242F2F5F2F71A22FB0E0A459BE4FEB
:100AF0008C932F5F2F7120A3209197013091980143
:100B00002927022E2295207F2025032E322F229581
:100B10002F700226269532272327220F220F220F1D
:100B200020252827022E2295207F2025032E322FD4
:100B300022952F700226269532272327220F220F77
:100B4000220F20253093980120939701DF91CF91B8
:100B5000089580919601882369F110929601809101
:100B600094018F5F8770E82FF0E0E459FE4F90A169
:100B70002091970130919801A92FB0E0A459BE4F60
:100B80003C939F5F9F71A92FB0E0A459BE4F2C9357
:100B90009F5F9F7190A3E82FEF5FF0E0E770F07028
:100BA000E459FE4F90A3809394018091C10080622C
:100BB0008093C1000895E4E6F0E080818D7F80831A
:100BC000E1ECF0E0108286E38093C20082E290E0E4
:100BD0009093C5008093C40082E08093C00088E9B0
:100BE000808308954F925F926F927F928F929F922F
:100BF000AF92BF92DF92EF92FF920F931F93CF932A
:100C0000DF93EC01D62E10919401E12FF0E0E4592E
:100C1000FE4F00A180919501E82FF0E0E459FE4FCE
:100C200090A1462F50E0BA016E5F7F4F202F209594
:100C3000290F2F7130E02617370708F48BC01F5F8C
:100C40001770181709F486C0FE014C0F5D1FEE24C3
:100C5000EA94FE2C14C0819197012827022E229538
:100C6000207F2025032E322F22952F7002262695D5
:100C700032272327220F220F220F20257901E41784
:100C8000F50749F78FE1801B980F9F71891718F0BE
:100C9000292F30E004C0282F30E02F5F3F4F8D2CEC
:100CA00099242815390514F0AD2C09C0891710F0C6
:100CB000A92E05C0A82EBB240894A11CB11CBB24DE
:100CC000202F30E08CE6682E81E0782E260D371D2F
:100CD000C901BE014A2D50E00E94D1088A189B0824
:100CE000CA0DDB1DC301BE01A4010E94D108A12FC2
:100CF000B0E0A60DB71D0D0D0F7190960C93909757
:100D0000809194018F5F8770E82FF0E0E60DF71D6A
:100D100080A1C82FD0E0C60DD71DE8828F5F8F71EC
:100D2000C82FD0E0C60DD71DF8828F5F8F7180A3CA
:100D3000E12FEF5FF0E0E770F070E60DF71D9096A1
:100D40008C91909780A3109394018091C100806250
:100D50008093C100DF91CF911F910F91FF90EF9091
:100D6000DF90BF90AF909F908F907F906F905F903B
:100D70004F9008956F927F928F929F92AF92BF9201
:100D8000CF92DF92EF92FF920F931F93CF93DF9357
:100D9000EC01E0916B0180916A01E81711F410E019
:100DA00041C0CE2EDD24D601AE5BBE4F9096FC90A6
:100DB0009097EF5FF0E0E770F070EE5BFE4F90A170
:100DC000192F1F191F7180E28F19E12E611708F486
:100DD000E62E062F861708F4082F890F8F718017CB
:100DE00008F4082FA02EBB242F2D30E092E4892E8A
:100DF00091E0992E280D391DCE01B901402F50E008
:100E00000E94D108CA0DDB1D4E2D401BCE01B4013E
:100E100050E00E94D108F601E80DF91D8E2D8F0DCE
:100E20008F7180A3812FDF91CF911F910F91FF9040
:100E3000EF90DF90CF90BF90AF909F908F907F907A
:100E40006F900895259A089540E951E02D9A24EC79
:100E500039E0FA013197F1F721503040D1F72D9860
:100E600024EC39E0FA013197F1F721503040D1F705
:100E7000815061F784EC99E020E931E0F901319784
:100E8000F1F70197D9F70895CF92DF92EF92FF9291
:100E90000F931F93CF93DF93EC018C899D89861B61
:100EA000970B2E853F85280F391F3F872E874C854E
:100EB0005D85421753071CF45F874E8709C066277C
:100EC0007727641B750B2617370714F47F876E8707
:100ED000CA88DB889C012C193D0969019B8B8A8B90
:100EE0007C010027F7FC0095102F288139814A8169
:100EF0005B81C801B7010E9475087B018C012E85BA
:100F00003F85B901882777FD8095982F28853985F9
:100F10004A855B850E947508E60EF71E081F191F9B
:100F2000B601882777FD8095982F2C813D814E81D1
:100F30005F810E947508E60EF71E081F191FC80181
:100F4000B70120E034E040E050E00E949408C9017D
:100F5000DA01803030E8930730E0A30730E0B307D0
:100F60001CF02FEF3FE70CC0803020E892072FEFF6
:100F7000A2072FEFB2071CF420E030E801C09C016B
:100F8000C901DF91CF911F910F91FF90EF90DF90FA
:100F9000CF900895AAE7B0E09C91977F9C93E82FAB
:100FA000F0E0EE0FFF1FE556FE4F808191812C91FE
:100FB00028602C930895809164008E7F8093640054
:100FC00080917E00816080937E0080917E008260AF
:100FD00080937E0080E480937C008FEB80937A0086
:100FE00010927B009091990180917C00E92FF0E0B4
:100FF000EB5CFE4F807E2081822B80937C00809171
:101000007A00806480937A00E0E8F0E03197F1F7AD
:10101000892F8F5F80939901823010F0109299018F
:1010200080917C00E0919901F0E0EB5CFE4F807EC6
:101030009081892B80937C0008951F920F920FB6A8
:101040000F9211242F933F938F939F93EF93FF93CE
:1010500080919901882311F4E1E002C0E82FE1506A
:101060002091780030917900F0E0EE0FFF1FE556F7
:10107000FE4F31832083882319F491E090939A01E5
:101080008F5F80939901823010F0109299018091C6
:101090007C00E0919901F0E0EB5CFE4F807E908156
:1010A000892B80937C00FF91EF919F918F913F91CD
:1010B0002F910F900FBE0F901F901895DC01EAE75B
:1010C000F0E09081977F908320919B0130919C016B
:1010D00040919D0150919E012D933D934D935C93C2
:1010E00013978081886080830895629FD001739FE9
:1010F000F001829FE00DF11D649FE00DF11D929FB4
:10110000F00D839FF00D749FF00D659FF00D9927F2
:10111000729FB00DE11DF91F639FB00DE11DF91F16
:10112000BD01CF011124089597FB092E05260ED08D
:1011300057FD04D014D00AD0001C38F450954095C7
:10114000309521953F4F4F4F5F4F0895F6F790959B
:101150008095709561957F4F8F4F9F4F0895A1E2C5
:101160001A2EAA1BBB1BFD010DC0AA1FBB1FEE1F21
:10117000FF1FA217B307E407F50720F0A21BB30B6C
:10118000E40BF50B661F771F881F991F1A9469F7E8
:1011900060957095809590959B01AC01BD01CF0144
:1011A0000895FB01DC0102C001900D9241505040B6
:0811B000D8F70895F894FFCF71
:1011B8006D61696E2E6300880025000247002B00D0
:1011C800402B00108A0025000448002B00202B002B
:1011D8008004050000000000000000020300000079
:0811E8000000000000000100FE
:00000001FF
